:030000000204C532
:0C04C500787FE4F6D8FD75818902050CF3
:10085A00574946492D6D61726B006D61726B6D610E
:0A086A00726B6D61726B3132330066
:100874001207E0750CFF750D08750E647BFF7A088E
:09088400795A7D0912038D80FEF2
:0908B00001430001410001420076
:10083800EFD394004019E4FDFC0548E54870020533
:10084800470DBD00010CBC03F0BDE8ED1F80E1AF12
:010858004857
:01085900227C
:10088D00AB07AA06EB4A600C7F01120838EB1B7010
:05089D00F31A80F022B7
:1007E00053B29FE4F543758780759870F59AF59B31
:1007F000C28E5389FE43892053CEFE43CE08758DA9
:0F080000F7758BF7D28ED2ACC299C298D2AF22C5
:1007AA008B448A458946C3E5439DE49C50077F6490
:1007BA007E0012088DE5436019C2ACFF7E00A84690
:1007CA00AC45AD447B017A0079001200F6E4F543AA
:0607DA00D2ACE4FEFF2298
:0A0551008B318A3289338C348D35EA
:10055B00E4F538F5397F017E0012088DC2ACE54316
:02056B006049E5
:10056D002539FFEE3538FED3EF9535EE9534500530
:10057D0085433A8007C3E5359539F53AAF3A7E00A4
:10058D00E5332539F9E5323538A801FCAD317B016C
:10059D007A0079001200F6E53A2539F539E4353857
:0905AD00F538C3E543953AF54326
:1005B600D2ACC3E5399535E5389534500DE5371598
:0E05C60037AE36700215364E7090AE38AF3933
:0105D4002204
:0808BA00C2ACE4F543D2AC220C
:060003008B228A238924F0
:10000900E4FFFEAB22AA23A9248F828E8312013535
:0900190060070FBF00010E80EA30
:0100220022BB
:0E08A200C2ACC2998F993099FDC299D2AC2296
:06080F008B1F8A208921E5
:10081500120003AE07AF061EEF6017AB1F0521E5FB
:1008250021AA207002052014F912011CFF1208A24A
:0208350080E35E
:01083700229E
:030023000206D002
:1006D000C0E0C083C082C0D075D000C000C006C0DA
:0106E0000712
:1006E10030981BC298AF997440D395434010AE43E4
:1006F100054374002EF582E43400F583EFF0309960
:100701001BC299E5416012754200FF1541C3740691
:0C0711009F243BF8E6F599800375420137
:0F071D00D007D006D000D0D0D082D083D0E03229
:1002410061742B7665723D3F0D0A0061742B7665F2
:10025100720061742B574D3D320D0A0061742B53AE
:10026100737369643D000D0A0061742B53737369E4
:10027100646C3D0061742B53616D3D0061742B53BF
:1002810070773D0061742B5370776C3D0061742B66
:10029100646863703D300D0A0061742B69703D31F3
:1002A10039322C3136382C31312C39390D0A006173
:1002B100742B6D61736B3D3235352C3235352C32F3
:1002C10035352C300D0A0061742B67773D31393299
:1002D1002C3136382C31312C310D0A0061742B64EC
:1002E1006E733D3139322C3136382C31312C310D90
:1002F1000A0061742B55547970653D310D0A006116
:10030100742B5549703D3139322E3136382E302E0D
:10031100310D0A0061742B5552506F72743D3830A3
:1003210038300D0A0061742B554C506F72743D3892
:100331003038300D0A0061742B55623D3131353250
:1003410030300D0A0061742B55643D380D0A00618F
:10035100742B55703D300D0A0061742B55733D317E
:100361000D0A0061742B57433D310D0A0061742B56
:1003710052623D310D0A0061742B44663D310D0A14
:0C038100006F6B00000000000000000096
:10072C001208BA7BFF7A02794112080F7B007A001B
:10073C00794975360175372C7D417C001205517451
:10074C00492FF8E4F67528FF752902752A4CFB7AB7
:0E075C000079491205D5E94A7002FF227F019B
:01076A00226C
:080657008F168E158D148C1313
:10065F0078177C007D007BFF7A0379857E007F0809
:10066F001200F6E4F5177F0774162FF8E6FE7417DD
:10067F002FF8A606DFF2E47B0AFAF9F8AF16AE15EB
:10068F00AD14AC1312019EEB2430F517AF16AE1557
:10069F00AD14AC13E47B0AFAF9F812019E8F168E93
:1006AF00158D148C13E4FFFEFDFCAB16AA15A914CF
:1006BF00A813D312023050AE7B007A0079170208CC
:0106CF000F1B
:08038D008D0B8B088A09890A17
:100395001200038E0F8F10AB0CAA0DA90E120003CD
:1003A5008E118F127BFF7A02795312080F7BFF7A29
:1003B50002795D12080FAB08AA09A90A12080F7B7A
:1003C500FF7A02796712080F7BFF7A02796A1208B1
:1003D5000FAE0FAF10E4FCFD1206577BFF7A0279D2
:1003E5006712080F7BFF7A02797512080FAF0BEFC2
:1003F5003395E0FEFDFC1206577BFF7A0279671202
:10040500080F7BFF7A02797D12080FAB0CAA0DA9A4
:100415000E12080F7BFF7A02796712080F7BFF7AAD
:1004250002798512080FAE11AF12E4FCFD120657D2
:100435007BFF7A02796712080F7BFF7A02798E12A9
:10044500080F7BFF7A02799A12080F7BFF7A0279EF
:10045500B012080F7BFF7A0279C812080F7BFF7A6A
:100465000279DD12080F7BFF7A0279F312080F7B00
:10047500FF7A03790012080F7BFF7A0379151208BA
:100485000F7BFF7A03792612080F7BFF7A037937F2
:1004950012080F7BFF7A03794612080F7BFF7A0358
:1004A500795012080F7BFF7A03795A12080F7BFFE8
:1004B5007A03796412080F7BFF7A03796E02080FBD
:10076B007BFF7A03797812080F1208BA7B007A00A4
:10077B0079497536017537F47D417C00120551744A
:10078B00492FF8E4F67528FF752903752A82FB7A41
:0E079B000079491205D5E94A7002FF227F015C
:0107A900222D
:1004D100020874E493A3F8E493A34003F68001F2C5
:1004E10008DFF48029E493A3F85407240CC8C3332C
:1004F100C4540F4420C8834004F456800146F6DFFB
:10050100E4800B01020408102040809008B0E47ED2
:10051100019360BCA3FF543F30E509541FFEE493EF
:10052100A360010ECF54C025E060A840B8E493A3B6
:10053100FAE493A3F8E493A3C8C582C8CAC583CAE1
:10054100F0A3C8C582C8CAC583CADFE9DEE780BE99
:0108B900003E
:10002600E709F608DFFA8046E709F208DFFA803EBC
:1000360088828C83E709F0A3DFFA8032E309F608A9
:10004600DFFA8078E309F208DFFA807088828C8311
:10005600E309F0A3DFFA806489828A83E0A3F608C5
:10006600DFFA805889828A83E0A3F208DFFA804C9F
:1000760080D280FA80C680D4806980F28033801076
:1000860080A680EA809A80A880DA80E280CA8033DF
:1000960089828A83ECFAE493A3C8C582C8CCC58357
:1000A600CCF0A3C8C582C8CCC583CCDFE9DEE78027
:1000B6000D89828A83E493A3F608DFF9ECFAA9F0A6
:1000C600EDFB2289828A83ECFAE0A3C8C582C8CCFC
:1000D600C583CCF0A3C8C582C8CCC583CCDFEADE15
:1000E600E880DB89828A83E493A3F208DFF980CC77
:1000F60088F0EF60010E4E60C388F0ED2402B40470
:100106000050B9F582EB2402B4040050AF23234516
:06011600822390007673C5
:10011C00BB010689828A83E0225002E722BBFE02E1
:09012C00E32289828A83E4932214
:10013500BB010CE58229F582E5833AF583E022507F
:1001450006E92582F8E622BBFE06E92582F8E222C9
:0D015500E58229F582E5833AF583E49322E3
:1001620075F008758200EF2FFFEE33FECD33CDCC54
:1001720033CCC58233C5829BED9AEC99E5829840D7
:100182000CF582EE9BFEED9AFDEC99FC0FD5F0D6B4
:10019200E4CEFBE4CDFAE4CCF9A88222B800C1B9DE
:1001A2000059BA002DEC8BF084CFCECDFCE5F0CB1C
:1001B200F97818EF2FFFEE33FEED33FDEC33FCEB55
:1001C20033FB10D703994004EB99FB0FD8E5E4F910
:1001D200FA227818EF2FFFEE33FEED33FDEC33FCFD
:1001E200C933C910D7059BE99A4007EC9BFCE99AF1
:1001F200F90FD8E0E4C9FAE4CCFB2275F010EF2F36
:10020200FFEE33FEED33FDCC33CCC833C810D70735
:100212009BEC9AE899400AED9BFDEC9AFCE899F870
:0E0222000FD5F0DAE4CDFBE4CCFAE4C8F92203
:10023000EB9FF5F0EA9E42F0E99D42F0E89C45F024
:01024000229B
:1005D5008B258A268927AB28AA29A92A12011C60FE
:1005E50063AB25AA26A92712011C605F85282B85E8
:1005F500292C852A2D8B2E8A2F8930AB2BAA2CA945
:100605002D12011CFF6023AB2EAA2FA93012011C4D
:100615006F701704252DF52DE4352CF52C74012567
:1006250030F530E4352FF52F80D1AB2BAA2CA92D31
:1006350012011C7002800D74012527F527E435266B
:10064500F526809DAB25AA26A927227B007A00796D
:02065500002281
:00000001FF
